:04000000803117280C
:100008007E1480310B1F09280A2815288B1E0D28FD
:100018000E2815280B1D1128122815288531BD25F5
:1000280080317E100900803119284030840000306A
:1000380085001230863100268031C63084000030B9
:10004800850020308631002680317E1020008331E3
:10005800302B21002C0886008701403FAE00413F2D
:10006800AF002E0884002F0885001200253A031DD2
:100078003E283F2804292C08860087010130810783
:1000880041310318810A2000C001C101031000306A
:1000980003180130D000FF30C200FF30C300210038
:1000A8002C0886008701403FB300413FB400330865
:1000B8008400340885001200643A0319642865280E
:1000C8006F2833088400340885001200693A031D3C
:1000D8006E286F28FA282D088600870101088400F9
:1000E800850102308107003FB500013FB6003308A3
:1000F800013EAE000030343DAF002C088600870179
:100108002E08C03F2F08C13F2030B900B61B8D28EC
:100118008F28013090280030B2000130B902390828
:10012800C63E860087010A30A0000030A1003608CC
:10013800A3003508A2008431412480312100210820
:10014800A7002008A60085317A25803121002608DD
:10015800303E81000A30A0000030A1003608A3001C
:100168003508A20082310E22803121002108B60014
:100178002008B500350836040319C328C428C9283F
:100188003908031DC828C928912839080319CD281A
:10019800CE28F32832080319D228D328F3280130AF
:1001A800B9023908C63E860087012D308100F32840
:1001B8003908C63E860087010108AE00AF012E0847
:1001C800A0002F08A1002B08A3002A08A200823152
:1001D8007222803101302100AE002E08B90720308C
:1001E8003906031DF828F928DC281E2921002C08C7
:1001F800860087010130810741310318810A1E29D1
:100208002C0886008701403FAE00413FAF002E0812
:1002180084002F0885000008B000B1013008A00054
:100228003108A1002B08A3002A08A20082317222FB
:100238008031FA2808002000220886008701403F04
:10024800A400413FA5002408840025088500120069
:10025800253A031D30293129F32922088600870110
:100268000130810741310318810AC001C10103101F
:10027800003003180130D000FF30C200FF30C30047
:10028800220886008701403FA900413FAA002908AB
:1002980084002A0885001200643A03195429552954
:1002A8005F29290884002A0885001200693A031D7D
:1002B8005E295F29E929230886008701010884004F
:1002C800850102308107003FAB00013FAC002908DF
:1002D800013EA40000302A3DA500220886008701BF
:1002E8002408C03F2508C13F2030AF00AC1B7D2942
:1002F8007F29013080290030A8000130AF022F0883
:10030800C63E860087010A30F0000030F1002C0854
:10031800F3002B08F2008431972481317108F8002A
:100328007008F70085318C2581317708303E8100CF
:100338000A30F0000030F10020002C08F3002B08F0
:10034800F2008231D122813171082000AC0070089E
:10035800AB002B082C040319B229B329B8292F089C
:10036800031DB729B82981292F080319BC29BD29DC
:10037800E22928080319C129C229E2290130AF025C
:100388002F08C63E860087012D308100E2292F08FC
:10039800C63E860087010108A400A5012408F000D4
:1003A8002508F1002108F3002008F20083318D238D
:1003B800813101302000A4002408AF0720302F0627
:1003C800031DE729E829CB290D2A200022088600E9
:1003D80087010130810741310318810A0D2A22085B
:1003E80086008701403FA400413FA50024088400FF
:1003F800250885000008A600A7012608F0002708A0
:10040800F1002108F3002008F20083318D238131A7
:10041800E92908002100A501A11F132A142A1B2A73
:10042800A009A109A00A0319A10AA501A50AA31FE9
:100438001E2A1F2A2A2AA209A309A20A0319A30A03
:1004480001302000BE003E082100A506A601A70134
:10045800200821040319312A322A632AA401A40A94
:10046800402A0130A035A10D890B362A0130200021
:10047800BE003E082100A407A11F432A442A352AAA
:100488000130A635A70D890B452A21082302031D33
:100498004F2A20082202031C522A532A582A2008CD
:1004A800A2022108A33B26140130A136A00C890B17
:1004B800592A0130A402031D622A632A442A250806
:1004C8000319672A682A6D2AA609A709A60A031923
:1004D800A70A2708A1002608A00008002100220872
:1004E80023040319782A792A7F2A22082304031D62
:1004F8007E2A7F2A842A2008863112268231D02A31
:1005080022088600230887004931160001040319D0
:100518008E2A8F2AAF2A22088600230887004931AD
:10052800403FA400413FA500220886002308870019
:100538004231403FA600413FA7002708803AA80063
:100548002508803A2802031DAB2A2408260203182E
:10055800AE2AAF2AD02A2100220886002308870065
:1005680042312208840023088500403F0007A40088
:100578000131413F003DA500240886002508870079
:1005880020088100220886002308870042310130B4
:10059800810741310318810A0800F601F11FD52AA5
:1005A800D62ADD2AF009F109F00A0319F10AF60141
:1005B800F60AF31FE02AE12AEA2AF209F309F20A05
:1005C8000319F30A0130F4007408F606F701F8017C
:1005D800700871040319F12AF22A212BF501F50A92
:1005E800FE2A0130F035F10D890BF62A0130F400AE
:1005F8007408F507F11F012B022BF52A0130F73596
:10060800F80D890B032B71087302031D0D2B70085D
:100618007202031C102B112B162B7008F2027108A2
:10062800F33B77140130F136F00C890B172B0130AE
:10063800F502031D202B212B022B76080319252BED
:10064800262B2B2BF709F809F70A0319F80A78085B
:10065800F1007708F000080036302100C10085302D
:10066800C20085319D2583318531DD258331853172
:10067800662583318B170B17EA302000BE00033044
:10068800BF0086310626833120000D160C184D2B2D
:100698004E2B5C2B02302100C5000430C400BA3058
:1006A800890B542BC40B542BC50B542B0000692BFE
:1006B80006302100C5001330C400AD30890B622B11
:1006C800C40B622BC50B622B003220000D120C18D4
:1006D8006E2B6F2B7D2B02302100C5000430C40027
:1006E800BA30890B752BC40B752BC50B752B000005
:1006F800482B06302100C5001330C400AD30890BEB
:10070800832BC40B832BC50B832B0032482B8031E2
:100718001728720873040319922B932B992B7208CC
:100728007304031D982B992B9E2B70088631142671
:100738008331E92B72088600730887004931160057
:1007480001040319A82BA92BC92B7208860073086A
:1007580087004931403FF400413FF50072088600A8
:10076800730887004231403FF600413FF7007708A1
:10077800803AF8007508803A7802031DC52B740882
:1007880076020318C82BC92BE92B72088600730858
:10079800870042317208840073088500403F0007D3
:1007A800F4000131413F003DF500740886007508EA
:1007B800870070088100720886007308870042313C
:1007C8000130810741310318810A080001302000F7
:1007D800C4070030C53DE830440603300319450618
:1007E800031DF72BF82B402CC401C5010130C607A7
:1007F8000030C73D3C3046064704031D042C052C39
:10080800212CC601C7010130C8070030C93D3C3062
:1008180048064904031D112C122C212CC801C901BA
:100828000130CA070030CB3D18304A064B04031D7F
:100838001E2C1F2C212CCA01CB01F630B5008530A7
:10084800B6004B08B8004A08B7004908BA0048087B
:10085800B9004708BC004608BB008531CD25833167
:10086800031022008D1F031403183B2C3E2C22007A
:100878008D17402C22008D1308002100A501A31F0D
:10088800462C472C4E2CA209A309A20A0319A30A35
:10089800A501A50AA11F512C522C572CA009A1096A
:1008A800A00A0319A10A2008210403195C2C5D2C55
:1008B800882CA401A40A6B2C0130A035A10D890B4A
:1008C800612C01302000BE003E082100A407A11FB2
:1008D8006E2C6F2C602C21082302031D752C200818
:1008E8002202031C782C792C7D2C2008A2022108D6
:1008F800A33B0130A136A00C890B7E2C0130A40249
:10090800031D872C882C6F2C250803198C2C8D2C03
:10091800922CA209A309A20A0319A30A2308A10079
:100928002208A0000800F601F31F9B2C9C2CA32C86
:10093800F209F309F20A0319F30AF601F60AF11F9C
:10094800A62CA72CAC2CF009F109F00A0319F10A1E
:10095800700871040319B12CB22CDB2CF501F50ACF
:10096800BE2C0130F035F10D890BB62C0130F400A6
:100978007408F507F11FC12CC22CB52C710873023D
:10098800031DC82C70087202031CCB2CCC2CD02C55
:100998007008F2027108F33B0130F136F00C890B54
:1009A800D12C0130F502031DDA2CDB2CC22C760881
:1009B8000319DF2CE02CE52CF209F309F20A0319DC
:1009C800F30A7308F1007208F000080022008C0195
:1009D8008D018E013B3021008C0060308D00FF308E
:1009E8008E00103023008C0020308D00CF308E0018
:1009F800383024008C0060308D00210095132700CA
:100A0800910192019301940195019601080020003B
:100A18003308FD003208FC001D2D20003108A1001C
:100A28003008A0007C30A2003408A30081311F21C7
:100A380085317C0884007D0885001200031D252D62
:100A4800262D112D2000B001B101080066340534AF
:100A580000340034003400340034003406340634E2
:100A6800003400342D342D343E342034533474345F
:100A780061347234743469346E34673420342E34FB
:100A88002E342E340A34003421003D08C0003C08BE
:100A9800BF00592D3B08AB003A08AA00BF30AC0094
:100AA8003E08AD0080312D20853121003F088400AB
:100AB800400885001200031D622D632D4E2DBA01DA
:100AC800BB01080021001508C0391238950006300E
:100AD800200095000630D1001330BE000630BF005C
:100AE8008631062685310B118B1608002100A71BBD
:100AF8007E2D7F2D802D8B2D2609A8002709A90082
:100B0800A80A0319A90A2808A6002908A7000800A6
:100B1800F81B8F2D902D912D9C2D7709F9007809C0
:100B2800FA00F90A0319FA0A7908F7007A08F800AE
:100B38000800C3302100C3000030BA00BB004208DF
:100B4800BD004108BC00C330BE0085314825853151
:100B580008003E30210099009A0198014030270092
:100B68009B002200960121001A1FBB2DBC2DB72D1A
:100B780008000B112000510895004C084D0403197A
:100B8800C62DC72DCC2D4D088A004C080A0085318A
:100B9800080037302000BD000030B000B100360832
:100BA800B3003508B2003D30B40085310B258531DE
:100BB80008008531AD2585318431EA2485318531B8
:100BC800662585318531EA25853108008B1021009D
:100BD800151700302000BE000030BF0086310C26FB
:100BE80085310800253464343A34253464343A3481
:100BF800253464340A340034640080010131890BDF
:100C0800012E003420003F08CD003E08CC0008002B
:100C180020003F08CF003E08CE000800080008006A
:020C28000800C2
:020000040001F9
:04000E00E73FFF3F8A
:00000001FF
