:02000000FE2BD5
:10076A00831605140612831206128312061605183A
:10077A00BF2BC02BCE2B02308E003F308D004C3069
:10078A008C008C0BC62B8D0BC62B8E0BC62B000038
:10079A00DB2B07308E0038308D0088308C008C0BB4
:1007AA00D42B8D0BD42B8E0BD42B00008312061264
:1007BA000518E02BE12BEF2B02308E003F308D0025
:1007CA004C308C008C0BE72B8D0BE72B8E0BE72B19
:1007DA000000BA2B07308E0038308D0088308C002C
:1007EA008C0BF52B8D0BF52B8E0BF52B0000BA2BF2
:0607FA0000288301B52B6D
:02400E00FA3F77
:00000001FF
