:02000000FE2BD5
:1006D800831285141C088C001D088D008E018F0163
:1006E8009423831285101C088C001D088D008E0130
:1006F8008F01942308003D3083168500882BF43041
:100708009C0001309D006C23831205188C2B8D2BC7
:10071800832B32309C0000309D006C237F2B0028F7
:1007280083120F0897000E0896000D0895000C0814
:100738009400D22B003083129B0000309A000030C6
:1007480099000A309800013083129000003091001F
:100758000030920000309300100898021108031C22
:10076800110FB72BB82B99021208031C120FBD2BBF
:10077800BE2B9A021308031C130FC32BC42B9B0216
:10078800180A031DD12B190A031DD12B1A0A031DA0
:10079800D12B1B0A031DD12BD22BA72B013083127F
:1007A8009000003091000030920000309300100853
:1007B80094021108031C110FE22BE32B9502120877
:1007C800031C120FE82BE92B96021308031C130FC6
:1007D800EE2BEF2B9702140A031DFC2B150A031DA1
:1007E800FC2B160A031DFC2B170A031DFC2BFD2BE3
:0807F8009E2B080083017F2BFA
:00000001FF
