:020000040000fa
:080000000002040000000000f2
:020000040000fa
:040008004a030000a7
:020000040000fa
:04000c00c802000026
:020000040000fa
:040010000a030000df
:020000040000fa
:04001400e8020000fe
:020000040000fa
:040018002a030000b7
:020000040000fa
:04001c004a03000093
:020000040000fa
:040020004a0300008f
:020000040000fa
:040024004a0300008b
:020000040000fa
:040028004a03000087
:020000040000fa
:04002c004a03000083
:020000040000fa
:040030004a0300007f
:020000040000fa
:040034004a0300007b
:020000040000fa
:040038004a03000077
:020000040000fa
:04003c004a03000073
:020000040000fa
:040040004a0300006f
:020000040000fa
:040044004a0300006b
:020000040000fa
:040048004a03000067
:020000040000fa
:04004c004a03000063
:020000040000fa
:040050004a0300005f
:020000040000fa
:040054004a0300005b
:020000040000fa
:040058004a03000057
:020000040000fa
:04005c004a03000053
:020000040000fa
:040060004a0300004f
:020000040000fa
:040064004a0300004b
:020000040000fa
:040068004a03000047
:020000040000fa
:04006c004a03000043
:020000040000fa
:040070004a0300003f
:020000040000fa
:040074004a0300003b
:020000040000fa
:040078004a03000037
:020000040000fa
:04007c004a03000033
:020000040000fa
:040080004a0300002f
:020000040000fa
:040084004a0300002b
:020000040000fa
:040088004a03000027
:020000040000fa
:04008c004a03000023
:020000040000fa
:040090004a0300001f
:020000040000fa
:040094004a0300001b
:020000040000fa
:040098004a03000017
:020000040000fa
:04009c004a03000013
:020000040000fa
:0400a0004a0300000f
:020000040000fa
:0400a4004a0300000b
:020000040000fa
:0400a8004a03000007
:020000040000fa
:0400ac004a03000003
:020000040000fa
:0400b0004a030000ff
:020000040000fa
:0400b4004a030000fb
:020000040000fa
:0400b8004a030000f7
:020000040000fa
:0400bc004a030000f3
:020000040000fa
:0400c0004a030000ef
:020000040000fa
:0400c4004a030000eb
:020000040000fa
:0400c8004a030000e7
:020000040000fa
:0400cc004a030000e3
:020000040000fa
:0400d0004a030000df
:020000040000fa
:0400d4004a030000db
:020000040000fa
:0400d8004a030000d7
:020000040000fa
:0400dc004a030000d3
:020000040000fa
:0400e0004a030000cf
:020000040000fa
:0400e4004a030000cb
:020000040000fa
:0400e8004a030000c7
:020000040000fa
:0400ec004a030000c3
:020000040000fa
:0400f0004a030000bf
:020000040000fa
:0400f4004a030000bb
:020000040000fa
:0400f8004a030000b7
:020000040000fa
:0400fc004a030000b3
:020000040000fa
:040100004a030000ae
:020000040000fa
:040104004a030000aa
:020000040000fa
:040108004a030000a6
:020000040000fa
:04010c004a030000a2
:020000040000fa
:040110004a0300009e
:020000040000fa
:040114004a0300009a
:020000040000fa
:040118004a03000096
:020000040000fa
:04011c004a03000092
:020000040000fa
:040120004a0300008e
:020000040000fa
:040124004a0300008a
:020000040000fa
:040128004a03000086
:020000040000fa
:04012c004a03000082
:020000040000fa
:040130004a0300007e
:020000040000fa
:040134004a0300007a
:020000040000fa
:040138004a03000076
:020000040000fa
:04013c004a03000072
:020000040000fa
:040140004a0300006e
:020000040000fa
:040144004a0300006a
:020000040000fa
:040148004a03000066
:020000040000fa
:04014c004a03000062
:020000040000fa
:040150004a0300005e
:020000040000fa
:040154004a0300005a
:020000040000fa
:040158004a03000056
:020000040000fa
:04015c004a03000052
:020000040000fa
:040160004a0300004e
:020000040000fa
:040164004a0300004a
:020000040000fa
:040168004a03000046
:020000040000fa
:04016c004a03000042
:020000040000fa
:040170004a0300003e
:020000040000fa
:040174004a0300003a
:020000040000fa
:040178004a03000036
:020000040000fa
:04017c004a03000032
:020000040000fa
:040180004a0300002e
:020000040000fa
:040208004a030000a5
:020000040000fa
:04020c00c802000024
:020000040000fa
:040210000a030000dd
:020000040000fa
:04021400e8020000fc
:020000040000fa
:040218002a030000b5
:020000040000fa
:04021c004a03000091
:020000040000fa
:040220004a0300008d
:020000040000fa
:040224004a03000089
:020000040000fa
:040228004a03000085
:020000040000fa
:04022c004a03000081
:020000040000fa
:040230004a0300007d
:020000040000fa
:040234004a03000079
:020000040000fa
:040238004a03000075
:020000040000fa
:04023c004a03000071
:020000040000fa
:040240004a0300006d
:020000040000fa
:040244004a03000069
:020000040000fa
:040248004a03000065
:020000040000fa
:04024c004a03000061
:020000040000fa
:040250004a0300005d
:020000040000fa
:040254004a03000059
:020000040000fa
:040258004a03000055
:020000040000fa
:04025c004a03000051
:020000040000fa
:040260004a0300004d
:020000040000fa
:040264004a03000049
:020000040000fa
:040268004a03000045
:020000040000fa
:04026c004a03000041
:020000040000fa
:040270004a0300003d
:020000040000fa
:040274004a03000039
:020000040000fa
:040278004a03000035
:020000040000fa
:04027c004a03000031
:020000040000fa
:040280004a0300002d
:020000040000fa
:040284004a03000029
:020000040000fa
:040288004a03000025
:020000040000fa
:04028c004a03000021
:020000040000fa
:040290004a0300001d
:020000040000fa
:040294004a03000019
:020000040000fa
:040298004a03000015
:020000040000fa
:04029c004a03000011
:020000040000fa
:0402a0004a0300000d
:020000040000fa
:0402a4004a03000009
:020000040000fa
:0402a8004a03000005
:020000040000fa
:0402ac004a03000001
:020000040000fa
:0402b0004a030000fd
:020000040000fa
:0402b4004a030000f9
:020000040000fa
:0402b8004a030000f5
:020000040000fa
:0402bc004a030000f1
:020000040000fa
:0402c0004a030000ed
:020000040000fa
:0402c4004a030000e9
:020000040000fa
:0402c8004a030000e5
:020000040000fa
:0402cc004a030000e1
:020000040000fa
:0402d0004a030000dd
:020000040000fa
:0402d4004a030000d9
:020000040000fa
:0402d8004a030000d5
:020000040000fa
:0402dc004a030000d1
:020000040000fa
:0402e0004a030000cd
:020000040000fa
:0402e4004a030000c9
:020000040000fa
:0402e8004a030000c5
:020000040000fa
:0402ec004a030000c1
:020000040000fa
:0402f0004a030000bd
:020000040000fa
:0402f4004a030000b9
:020000040000fa
:0402f8004a030000b5
:020000040000fa
:0402fc004a030000b1
:020000040000fa
:040300004a030000ac
:020000040000fa
:040304004a030000a8
:020000040000fa
:040308004a030000a4
:020000040000fa
:04030c004a030000a0
:020000040000fa
:040310004a0300009c
:020000040000fa
:040314004a03000098
:020000040000fa
:040318004a03000094
:020000040000fa
:04031c004a03000090
:020000040000fa
:040320004a0300008c
:020000040000fa
:040324004a03000088
:020000040000fa
:040328004a03000084
:020000040000fa
:04032c004a03000080
:020000040000fa
:040330004a0300007c
:020000040000fa
:040334004a03000078
:020000040000fa
:040338004a03000074
:020000040000fa
:04033c004a03000070
:020000040000fa
:040340004a0300006c
:020000040000fa
:040344004a03000068
:020000040000fa
:040348004a03000064
:020000040000fa
:04034c004a03000060
:020000040000fa
:040350004a0300005c
:020000040000fa
:040354004a03000058
:020000040000fa
:040358004a03000054
:020000040000fa
:04035c004a03000050
:020000040000fa
:040360004a0300004c
:020000040000fa
:040364004a03000048
:020000040000fa
:040368004a03000044
:020000040000fa
:04036c004a03000040
:020000040000fa
:040370004a0300003c
:020000040000fa
:040374004a03000038
:020000040000fa
:040378004a03000034
:020000040000fa
:04037c004a03000030
:020000040000fa
:040380004a0300002c
:020000040000fa
:100400002f8220000e7f22000e01880000000000d5
:10041000000020000000e000020032000001200087
:1004200020028800140007009c0007000000e00084
:1004300003003a00404d2000010020000200370078
:100440000000200001002000810f70000100320038
:1004500014000700000020000000e000020032004d
:1004600000000200000000005e0402000000000026
:100470000040da000000fe004440a9000000200017
:100480000000e0000300320000002000a00188000e
:100490004440a800000006008a1f78008b1f7800e7
:1004a0000000060091018800800478000000eb0045
:1004b0001a003700e284440032a0b4009905ba0063
:1004c000e284440032a0b4009906ba00e2844400f9
:1004d00032a0b4000006eb00476fde00fd07b2005b
:1004e000636ce10003003a00ebff07000000eb0043
:1004f0000a003700606ce10004003a00005deb0088
:100500008b05e900fdff3e00040037006168e10053
:10051000010032000086eb000b00070019c7ba008b
:100520001905ba000e04e00003003a000a00e000da
:10053000e0ff3a0000000600fe07b2009e018800be
:100540008a047800f5ff3700395dba008b05e900b1
:100550000c003200295dba008b05e900080032006a
:100560000c00e00003003a00e284440032a0b40032
:10057000f5ff370019ddba008b05e900faff3a00f4
:100580008904e800e184440032a0b40000000600c1
:100590003600f800809fbe00829fbe00849fbe0090
:1005a000869fbe000000fa008020a9000000eb003a
:1005b000f10007000080fa004f03be004f02be00aa
:1005c0004f01be004f00be003600f900004006009b
:1005d0003600f800809fbe00829fbe00849fbe0050
:1005e000869fbe000000fa00e80007008040a900d6
:1005f00010002000e00007000080fa004f03be005a
:100600004f02be004f01be004f00be003600f90091
:10061000004006003600f800809fbe00829fbe00aa
:10062000849fbe00869fbe000000fa008060a90083
:1006300020002000d00007000080fa004f03be0019
:100640004f02be004f01be004f00be003600f90051
:10065000004006003600f800809fbe00829fbe006a
:10066000849fbe00869fbe000000fa008080a90023
:1006700030002000c00007000080fa004f03be00d9
:100680004f02be004f01be004f00be003600f90011
:10069000004006000040da000000fe0000000500f7
:020000040000fa
:1006a0000c00fa0040079800510798004e01900096
:1006b000de019000028fbe0015003700b009200057
:1006c000010020002007980031079800000000007a
:1006d000ae0090003e0090000100700000f0a70006
:1006e0000000ea000000ea004f00de000041780050
:1006f0002e009000be00900061005000e080580085
:1007000020079800310798000204e000f0ff3a004b
:100710001e0090001e00700000f0a7000000ea001c
:100720000000ea004f00de00004078000081eb008e
:100730008081eb001e0f41005e9749000004e0003d
:10074000deff3a00000000000080fa000000060012
:100750000000fa00c002a900c022a900c042a900fe
:10076000c062a900c082a900c802a900c822a900cd
:10077000c842a900c862a900c882a900c8a2a900ed
:10078000c8e2a900c902a900c922a900c942a9005a
:10079000c962a900c9a2a900c9c2a900c9e2a900e9
:1007a000a000200001002000bdff07000080fa002b
:1007b000000006000000fa00e5ff0700c402a800e0
:1007c000c422a800c442a800c462a800c482a80031
:1007d000cc02a800cc22a800cc42a800cc62a80081
:1007e000cc82a800cca2a800cce2a800cd02a80030
:1007f000cd22a800cd42a800cd62a800cda2a800bd
:10080000cdc2a800cde2a800401f200001002000ba
:10081000a3ff0700c402a900c422a900c442a90082
:10082000c462a900c482a900cc02a900cc22a900fc
:10083000cc42a900cc62a900cc82a900cca2a9001c
:10084000cce2a900cd02a900cd22a900cd42a90089
:10085000cd62a900cda2a900cdc2a900cde2a90018
:10086000401f2000010020008dff07000080fa00db
:10087000000006000000fa00c002a800c022a90083
:10088000a00020000100200085ff07001016800056
:1008900000407800614060000080fb006100600063
:1008a00000004000111680000110a100010070003e
:1008b000101688000080fa00000006000000fa0010
:1008c00041000700bbff0700feff37000000fa00f1
:1008d00000102300203a88004827ef004e27ef0041
:1008e000908f2f00803b8800f0f12100903b880022
:1008f00020782000a03b8800f0042000b03b880056
:100900007200200080072000a1092000337420001d
:100910008049780081497800824978000001eb0025
:1009200060042000710520002374200080497800b5
:1009300081497800824978000080fa0000000600b2
:100940000000fa008000200020168800cc22ef0072
:10095000c022ef00c822ef006820ef006a20ef00fd
:10096000c622ef00ce22ef000080eb006019880065
:100970000080fa00000006000200fa00000f780074
:100980009e00780001408800ffff37000000fa0059
:100990002080200080077800a081200000018800ce
:0809a0000080fa0000000600cf
:020000040000fa
:1009a800020800002000000000000000000800000d
:1009b8000200000002000000ffff0000000000002d
:020000040000fa
:1009c8000000fa00dcff0700beff07000200070076
:1009d8000080fa00000006000000fa000080fa001b
:0409e8000000060005
:020000040000fa
:04aff0007fff0000df
:020000040000fa
:04aff400fffc00005e
:020000040000fa
:04aff8009f7f000037
:020000040000fa
:04affc007f3f000093
:00000001FF
